:03000000020040BB
:100040007FFE75800112163975800212163975808F
:100050000C121639758038121639DFE67FBF7840EA
:10006000762008DFFB7F2878D8762008DFFB7F0A20
:1000700078B0763008DFFB7F0878C0764E08DFFB6B
:100080007580007590A07590B0750900D29730A06A
:10009000030200C330A1030200C3758001121639A8
:1000A00075800C1216397F809017588F8012163980
:1000B000740093F580121646A30FB4FFEE12144F8E
:1000C00012144F7580501216397580FB1216467542
:1000D00080511216397580F5121646758052121627
:1000E000397580F51216467580531216397580FBE6
:1000F0001216467580541216397580F5121646751B
:1001000080551216397580F51216467580561216EE
:10011000397580FB1216467580571216397580FFA7
:1001200012164678B1763108763008763208763085
:1001300008763108763078C1765978809016FD744B
:100140000093F6A308740093B4FFF4788086300817
:1001500086310886320886330886340808088635D2
:1001600008863678908637088638789986390886E2
:100170003A78A2863B08863C78AB863D08863E7975
:1001800022774175800112163975800C1216397567
:1001900080007590907590B07F809016748F80125B
:1001A0001639740093F580121646A30FB4FFEE1FA4
:1001B00090167B8F80121639740093F580121646C4
:1001C000A30FB4FFEE1F8F801216397580311216FF
:1001D0004630A2FD30A4FA30A40530A21121D77513
:1001E000800C12163975800112163902020C7580C6
:1001F0000112163975800C12163978407940901624
:10020000EB1211D475800C121639218375800112FE
:10021000163975800C1216397F808F80121639902E
:1002200016748F80121639740093F580121646A347
:100230000FB4FFEE1F90167B8F8012163974009357
:10024000F580121646A30FB4FFEE1F8F80121639E9
:1002500075803212164630A2FD30A4FA30A20E305C
:10026000A402415C75800C12163902028B75800164
:10027000121639758008121639785879589016EB8D
:100280001211D475800C121639410C7580011216AA
:100290003975800C1216397F809016748F80121673
:1002A00039740093F580121646A30FB4FFEE1F9029
:1002B000167B8F80121639740093F580121646A3B0
:1002C0000FB4FFEE1F8F8012163975803312164659
:1002D00030A2FD30A4FA30A40530A21141D67580B9
:1002E0000C12163975800112163902030B75800144
:1002F00012163975800C12163978D079D09016EB19
:100300001211D475800C121639418B7580011216AA
:100310003975800C1216397F809016748F801216F2
:1003200039740093F580121646A30FB4FFEE1F90A8
:10033000167B8F80121639740093F580121646A32F
:100340000FB4FFEE1F8F80121639758034121646D7
:1003500030A2FD30A4FA30A40530A2116156758098
:100360000C12163975800112163902038B75800143
:1003700012163975800C12163978E879E89016EB68
:100380001211D475800C121639610B75800112168A
:100390003975800C1216397F809016888F8012165E
:1003A00039740093F580121646A30FB4FFEE7FC098
:1003B0009016958F80121639740093F580121646A8
:1003C000A30F740093B4FFEB30A2FD30A4FA30A267
:1003D0001430A40261CE75800112163975800C129A
:1003E00016390204B57880A63008A63108A632086E
:1003F000A63308A634080808A63508A6367890A6BD
:100400003708A6387899A63908A63A78A2A63B08F4
:10041000A63C78ABA63D08A63E758001121639753C
:10042000800E121639788079801212B77880863063
:10043000088631088632088633088634080808861C
:100440003508863675800112163975800E121639F8
:10045000788979891212B77890863708863875803E
:100460000112163975800E1216397892799212128D
:10047000B77899863908863A7580011216397580E1
:100480000E121639789B799B1212B778A2863B0818
:10049000863C75800112163975800E12163978A4C3
:1004A00079A41212B778AB863D08863E75800C128F
:1004B000163902038B7580011216397F8090167BE6
:1004C0008F80121639740093F580121646A30F74AC
:1004D0000093B4FFEB8F80121639758031121646E7
:1004E0000F8F8012163975803D1216460F8F8012BD
:1004F000163975803E1216460F90167B8F801216A5
:1005000039740093F580121646A30F740093B4FF5C
:10051000EB8F801216397580341216460F8F8012B9
:1005200016397580201216460F8F80121639758085
:100530003F12164678C079C07580C0121639868081
:1005400012164630A2FD30A4FA30A20530A43AA11A
:10055000497580C012163975805912164677593080
:10056000A2FD30A4FA30A20530A41EA1657580C09A
:1005700012163975804E121646774E30A2FD30A401
:10058000FA30A2CD30A402A18175800C1216397503
:10059000800112163975800C1216397F8090167FF3
:1005A0008F80121639740093F580121646A30FB48B
:1005B000FFEE1F9016A08F80121639740093F580FD
:1005C000121646A30F740093B4FFEB78B179B2B65C
:1005D000301DB7301A7580C012163975804E12164C
:1005E0004630A2FD30A4FA30A20530A405A1E712DE
:1005F000138175800C1216397580011216397F80AF
:1006000090167F8F80121639740093F5801216466B
:10061000A30FB4FFEE1F9016A98F80121639740035
:1006200093F580121646A30F740093B4FFEB78B3D2
:1006300079B4B6301DB7301A7580C012163975807E
:100640004E12164630A2FD30A4FA30A20530A405A1
:10065000C14A12138175800C121639758001121669
:10066000397F809016B28F80121639740093F5800E
:10067000121646A30FB4FFEE78B579B6B63025B79B
:1006800030227580C012163975804E1216467E8053
:10069000DEFE30A2F930A4F67E80DEFE30A2053008
:1006A000A405C19812138175800C1216397580014A
:1006B0001216397F809016C88F80121639740093F5
:1006C000F580121646A30F740093B4FFEB78C1793E
:1006D000C17580C01216398680121646E6B45903D9
:1006E0000207077E80DEFE30A2F930A4F67E80DEAF
:1006F000FE30A20530A44AC1ED7580C012163975CE
:10070000805912164677597E80DEFE30A2F930A459
:10071000F67E80DEFE30A20530A426E1117580C091
:1007200012163975804E121646774E7E80DEFE30E8
:10073000A2F930A4F67E80DEFE30A2BD30A402E134
:100740003575800C1216397580011216397F80902C
:1007500016D58F80121639740093F580121646A3B1
:100760000F740093B4FFEB782279227580C01216C3
:10077000398680121646E6B4410302079930A2FD7D
:1007800030A4FA30A20530A43AE1837580C0121675
:1007900039758041121646774130A2FD30A4FA30F7
:1007A000A20530A41EE19F7580C01216397580A085
:1007B00012164677A030A2FD30A4FA30A2CD30A4A4
:1007C00002E1BB75800C1216397580011216397F53
:1007D000809016DF8F80121639740093F580121600
:1007E00046A30F740093B4FFEB7E80DEFE30A2F9C7
:1007F00030A4F67E8030A20730A43BDEF8E1F37827
:1008000080A63008A63108A63208A63308A6340808
:100810000808A63508A6367890A63708A63878992D
:10082000A63908A63A78A2A63B08A63C78ABA63D16
:1008300008A63E0208727580011216397F80901753
:10084000508F80121639740093F580121646A30F4C
:10085000740093B4FFEB7E80DEFE30A2F930A4F684
:100860007E8030A20730A407DEF8016002118E02FC
:1008700001837510587511007C0A75270A75280ABE
:1008800078C186217840B620207F809017438F80E2
:10089000121639740093F580121646A30F74009354
:1008A000B4FFEB12144F0201837858B620030208FC
:1008B00089751F007C0A75270A75280A7880798750
:1008C00086138619088614861A088615861B08085A
:1008D0008616861C8717871D098718871E78C1868C
:1008E000210511E517B43008E518B43003020E688D
:1008F00075800112163978C18621D297E517B43078
:1009000008E518B43003020D8012144F12144F1270
:10091000144FE5094410F5807590A07590B078B13A
:1009200079B2B63006B73050020A32E6540FFD7B7A
:100930000A7580011216397F8090173A8F8012163F
:1009400039740093F580121646A30F740093B4FF18
:10095000EB7FC09016A08F80121639740093F5803B
:10096000121646A30F740093B4FFEB30A7BA12140B
:100970004F30A46FDBBBDDB9B7306B30A7AA7580F1
:10098000007590A07590B07580011216397F809027
:1009900016E78F80121639740093F580121646A35D
:1009A0000F740093B4FFEB7FC09016A08F801216D7
:1009B00039740093F580121646A30F740093B4FFA8
:1009C000EB7580807590A07590B012144F75800003
:1009D0007590A07590B030A40ADC050511020F3A9D
:1009E0000208F0020183E7540FFD758001121639E9
:1009F0007F8090173A8F80121639740093F5801219
:100A00001646A30F740093B4FFEB7FC09016A08F1F
:100A100080121639740093F580121646A30F7400E5
:100A200093B4FFEB30A70B12144F30A4B6DDBB021A
:100A30000987D297A81079C2771F7C807580011230
:100A40001639E6B4570C12144F12144F12144F02F9
:100A50000A7EB45405770F020A7EB45005771F0250
:100A60000A7EB4020302149AB42305740B020A86A8
:100A7000B42A057400020A86B42007020A95080207
:100A80000A421211BE57D297F580D293C29330A575
:100A9000FD08020A427580011216397C0A78B57980
:100AA000B6B63006B7304D020BACE6540FFD7B0AEC
:100AB0007580011216397F8090173A8F801216398F
:100AC000740093F580121646A30F740093B4FFEBE5
:100AD0007FC09016B28F80121639740093F5801281
:100AE0001646A30F740093B4FFEB30A6BA12144F4E
:100AF000DBBEDDBCB7306C30A6AD7580007590A054
:100B00007590B07580011216397F809016E78F803E
:100B1000121639740093F580121646A30F740093D1
:100B2000B4FFEB7FC09016B28F8012163974009319
:100B3000F580121646A30F740093B4FFEB75808006
:100B40007590A07590B012144F7580007590A075C7
:100B500090B030A40BD527050511020F3A0208F01A
:100B6000020183E7540FFD7580011216397F8090D2
:100B7000173A8F80121639740093F580121646A327
:100B80000F740093B4FFEB7FC09016B28F801216E3
:100B900039740093F580121646A30F740093B4FFC6
:100BA000EB30A60812144FDDBE020B037580011254
:100BB000163975800C121639758080121639851316
:100BC00080121646758081121639851480121646D9
:100BD000758082121639851580121646758083122B
:100BE000163975802C1216467580841216398516B2
:100BF0008012164675808512163975806312164666
:100C00007580C01216398517801216467580C1127C
:100C100016398518801216467580C21216397580ED
:100C2000201216467FC390172B8F8012163974003E
:100C300093F580121646A30F740093B4FFEB7580F2
:100C4000C81216398519801216467580C9121639D0
:100C5000851A801216467580CA121639851B8012B5
:100C600016467580CB12163975806312164674309D
:100C7000B51806B51703020D80752900752A00E521
:100C800016F52953290F152985152B532B0FAD2B3D
:100C90007400B52B03020CA07E0A0529DEFCDDF8EA
:100CA00085142B532B0FAD2B7400B52B03020CC0F6
:100CB0007E6474FF0529B52903120CE7DEF6DDF02A
:100CC00085132B532B0FAD2B7400B52B03020CEAAD
:100CD0007E647C0A74FF0529B52903120CE7DCF653
:100CE000DEF0DDEC020CEA052A227589D1E529F453
:100CF000F529F58BE52AF4F52AF58D758C00758AB2
:100D0000FFC28CC28DC28EC28F79C17B03E50944BC
:100D100030F5807590A07590B0D28E758001D29319
:100D2000C293C2977F17D28C108F23308DFAC28C5A
:100D3000C28DDFF2B7590820B405DB030211781227
:100D400015E1758C00758AFF30A417020D1BC28E49
:100D5000C28F7580007590A07590B0C28CC28D0254
:100D60000D78C28EC28F7580007590A07590B0C24C
:100D70008CC28DD2970201837430B5185BB5175BB6
:100D8000E51FB4000B7C0A75270A75280A020E6855
:100D9000B4010B7C0A75270A75280A020E9DB4025D
:100DA0000B7C0A75270A75280A020ED0B4030B7C47
:100DB0000A75270A75280A020F05B4040B7C0A7508
:100DC000270A75280A020F3A7C0A75270A75280A2D
:100DD000020F3AD297020183020E237518391517B4
:100DE00085131985141A85151B7822E6B4411A75E6
:100DF0008020C294D29412144F12144F12144F75C3
:100E00008000C294D2940208F0758010C294D294EB
:100E100012144F12144F12144F758000C294D294C2
:100E20000208F0151885131985141A85151B7822E8
:100E3000E6B4411A758020C294D29412144F121451
:100E40004F12144F758000C294D2940208F075803E
:100E500010C294D29412144F12144F12144F758072
:100E600000C294D2940208F0051F78897990861305
:100E70008619088614861A088615861B08088616A1
:100E8000861C8717871D098718871EE517B4300849
:100E9000E518B43003020E9DD2970208F0051F78C2
:100EA00092799986138619088614861A08861586FB
:100EB0001B08088616861C8717871D098718871E3A
:100EC000E517B43008E518B43003020ED00208F07C
:100ED000051F789B79A286138619088614861A083E
:100EE0008615861B08088616861C8717871D0987A6
:100EF00018871EE517B43008E518B43003020F0553
:100F0000D2970208F0051F78A479AB8613861908DA
:100F10008614861A088615861B08088616861C877E
:100F200017871D098718871EE517B43008E518B420
:100F30003003020F3AD2970208F0E511B401030220
:100F40000F57B40203020F7CB40309020F54B40418
:100F5000030210DC0210DC7510D078D0B6201175B9
:100F600080507590907590B075104078400208B12F
:100F70007580107590907590B00208B17510D0789A
:100F8000D0B6200705110511020F3A7580607590E3
:100F9000907590B07510407840D2970208B1020861
:100FA000B17510407840B620050511020F3A0208CD
:100FB000B17510E878E8B620050511020F3A758082
:100FC00000C295D295758001121639758010C294B1
:100FD000D2947F8090173A8F80121639740093F55F
:100FE00080121646A30F740093B4FFEB7FC09016D7
:100FF000A08F80121639740093F580121646A30F45
:10100000740093B4FFEB30A71B30A41512144F30BB
:10101000A40F12144F12144F30A70930A403020F6B
:10102000BE020183A81079C2771F7C8075800112EF
:101030001639E6B4570912144F12144F021064B453
:101040005405770F021064B45005771F021064B482
:10105000380CBC80030210BEBC81030210BEB42059
:101060000702107B080210321211BE57D297F5808A
:10107000D293C29330A5FD080210327C107580CB4C
:101080001216397580D912164630A429D297758068
:1010900001D293C29312144F7580CB12163975800A
:1010A000DA12164612144F30A40BDCD1758000758D
:1010B00090A07590B075800112163902018312114B
:1010C000BE57D297F580D293C29330A5FD12144F2C
:1010D00012144F12144F12144F02106478C0E6B469
:1010E0005916750940758000C295D29512144F7536
:1010F00010D8751103020FB17509007822E6B441CA
:101100001A758020C294D29412144F12144F1214E4
:101110004F758000C294D294021132758010C2942F
:10112000D29412144F12144F12144F758000C294AF
:10113000D2947580011216397F809017658F8012C6
:101140001639740093F580121646A30F740093B4F9
:10115000FFEB7FC090176F8F80121639740093F5E4
:1011600080121646A30F740093B4FFEB30A4FD3039
:10117000A40302116F02083612144F30A40D7880B8
:10118000861908861A08861B0208F00201837880F7
:101190007430F6087431F6087430F60808F678876B
:1011A000F6087431F674307890F608F67899F608F7
:1011B000F678A2F608F678ABF608F60208728C808C
:1011C000121639F5801216460CBC8C077CC08C8038
:1011D000121639227D808D801216398680121646AD
:1011E0000D08BD8CF17DC08D8012163986801216D7
:1011F000460D08BDCCF17D8075800E1216397580C4
:10120000021216399016EB7B0030A0FD30A1FA30A7
:10121000A2F730A4F430A03230A16830A20730A485
:101220000302121522740093B4FF069016EB02120B
:1012300025F78D80121639F580121646758010122A
:101240001639A30B121468021209BDC01175808BE8
:101250001216397D8B1214689016EB021209400C9D
:10126000BDCD091214689016EB021209BD8003026D
:10127000127A7580101216391D191214689016EB27
:10128000021209BD8B127580C01216397DC0091279
:1012900014689016EB021209400CBDCB09121468B9
:1012A0009016EB0212097580141216390D091214EA
:1012B000689016EB0212097D808D801216398680A7
:1012C0001216460D08BD89F190172B8D8012163924
:1012D000740093F580121646A30D740093B4FFEBCF
:1012E00075800E12163975800212163990172F7DEF
:1012F0008030A0FD30A1FA30A2F730A4F4DEF23045
:10130000A04530A15F30A20930A405DEF20212FF31
:1013100022BD8303021341BD8503021341BD860331
:10132000021341740093B4FF0690172F021323F7A2
:101330008D80121639F580121646758010121639F6
:10134000A330A2FD0212F1BD800930A0FD90172F3D
:101350000212F17580101216391D1930A0FD901778
:101360002F0212F1BD880930A1FD90172F0212F152
:101370007580141216390D0930A1FD90172F021235
:10138000F175800E1216397FC08F80121639868053
:101390001216460F8F8012163987801216460F904C
:1013A00016848F80121639740093F580121646A3A6
:1013B0000F740093B4FFEB75800E1216397580C060
:1013C0001216397DC090172F7E80DEFE30A0F930D6
:1013D000A1F630A2F330A4F07E80DEFE30A02830EB
:1013E000A10930A23E30A4660213D8BDC10930A1C4
:1013F000FD90172F0213C87580141216390D30A1F5
:10140000FD90172F0213C8BDC00930A0FD90172F03
:101410000213C87580101216391D30A0FD90172FC9
:101420000213C8740093B4FF0690172F021423BD53
:10143000C118F78D80121639F58012164675801086
:10144000121639A330A2FD0213C8F6021433227516
:1014500089017A14758C3C758AB0D28C308DFDC2AE
:101460008CC28D1ABA00ED227589017A06758C3C02
:10147000758AB0D28C308DFDC28CC28D1ABA00ED47
:10148000227589017A14758C00758AFFD28C308D93
:10149000FDC28CC28D1ABA00ED221211BE743857EB
:1014A000D297F580D293C29330A5FD8825892678FE
:1014B000B379B4B63010B7305AA825A92685148060
:1014C000121639020A7EE6540FFD7B0A758001125E
:1014D00016397F8090173A8F80121639740093F571
:1014E00080121646A30F740093B4FFEB7FC09016D2
:1014F000A98F80121639740093F580121646A30F37
:10150000740093B4FFEB30A77612144F30A473DB52
:10151000BBDDB9B7306F30A7667580007590A075D8
:1015200090B07580011216397F809016E78F801277
:101530001639740093F580121646A30F740093B405
:10154000FFEB7FC09016A98F80121639740093F5B7
:1015500080121646A30F740093B4FFEB758080755C
:1015600090A07590B012144F7580007590A0759082
:10157000B030A40ED528050511020F3A0208F0027A
:1015800015D1020183E7540FFD7580011216397FD2
:101590008090173A8F80121639740093F5801216D6
:1015A00046A30F740093B4FFEB7FC09016A98F8001
:1015B000121639740093F580121646A30F74009327
:1015C000B4FFEB30A70B12144F30A4B6DDBB0215ED
:1015D00022A825A9267580011216391211BE020A09
:1015E0007E7430B51B0E751B39B51A0D751A39B5D9
:1015F000190CC103151B021603151A02160315193F
:101600000216037580C8121653851980121660756C
:1016100080C9121653851A801216607580CA121678
:1016200053851B80121660227590B47590B6208782
:10163000F77590B07E80DEFE227590B07590B27521
:1016400090B0121628227590B17590B37590B012B3
:101650001628227590B07590B27590B012166A2255
:101660007590B17590B37590B0227590B47590B6C1
:101670002087F722486FBC657020FF61B22EFF6F94
:10168000B62E20FF6365BAFFE0BBB8BF2E20B8209E
:10169000BA6FBB2EFF636F65E3B8BD65BDB8B9FF18
:1016A0006FBFB365BF2063BFFF322DB46F206FBF24
:1016B000B3FFBE70B8B5BC20B3C3B76FB361FFBC96
:1016C00065B6B46F706FE3FFBA6FBDBF702E206355
:1016D0006F65E32EFF4F54A04FA62041A02EFF635D
:1016E000BF6170BF203FFF484554FF303132333473
:1016F0003536373839505457232A0220FF303231DB
:101700002C32632032303036322C34632032303188
:1017100032332C36632032303138342C3863203168
:10172000303630352C3563203035FF7061B7FF30EF
:10173000313233343536373839FF6FB6B8E361BDEF
:10174000B865FF48455420BD6FBC65706FB321FF7D
:10175000BE706FB261203FFF4F70BB6FB320EF20B0
:1017600032303035FFA8504FA150414D4D41FFA4BC
:0917700041424550AC454841FFDF
:00000001FF
